{
  "contractName": "Faucet",
  "abi": [
    {
      "inputs": [],
      "stateMutability": "payable",
      "type": "constructor",
      "payable": true
    },
    {
      "anonymous": false,
      "inputs": [
        {
          "indexed": true,
          "internalType": "address",
          "name": "from",
          "type": "address"
        },
        {
          "indexed": false,
          "internalType": "uint256",
          "name": "amount",
          "type": "uint256"
        }
      ],
      "name": "Deposit",
      "type": "event"
    },
    {
      "anonymous": false,
      "inputs": [
        {
          "indexed": true,
          "internalType": "address",
          "name": "to",
          "type": "address"
        },
        {
          "indexed": false,
          "internalType": "uint256",
          "name": "amount",
          "type": "uint256"
        }
      ],
      "name": "Withdrawal",
      "type": "event"
    },
    {
      "stateMutability": "payable",
      "type": "fallback",
      "payable": true
    },
    {
      "stateMutability": "payable",
      "type": "receive",
      "payable": true
    },
    {
      "inputs": [
        {
          "internalType": "uint256",
          "name": "withdraw_amount",
          "type": "uint256"
        }
      ],
      "name": "withdraw",
      "outputs": [],
      "stateMutability": "nonpayable",
      "type": "function"
    }
  ],
  "bytecode": "0x608060405261034a806100136000396000f3fe6080604052600436106100225760003560e01c80632e1a7d4d146100c757610077565b36610077573373ffffffffffffffffffffffffffffffffffffffff167fe1fffcc4923d04b559f4d29a8bfc6cda04eb5b0d3c460751c2402c5c5cc9109c3460405161006d91906101f8565b60405180910390a2005b3373ffffffffffffffffffffffffffffffffffffffff167fe1fffcc4923d04b559f4d29a8bfc6cda04eb5b0d3c460751c2402c5c5cc9109c346040516100bd91906101f8565b60405180910390a2005b3480156100d357600080fd5b506100ee60048036038101906100e99190610244565b6100f0565b005b67016345785d8a0000811061010457600080fd5b80471015610147576040517f08c379a000000000000000000000000000000000000000000000000000000000815260040161013e906102f4565b60405180910390fd5b3373ffffffffffffffffffffffffffffffffffffffff166108fc829081150290604051600060405180830381858888f1935050505015801561018d573d6000803e3d6000fd5b503373ffffffffffffffffffffffffffffffffffffffff167f7fcf532c15f0a6db0bd6d0e038bea71d30d808c7d98cb3bf7268a95bf5081b65826040516101d491906101f8565b60405180910390a250565b6000819050919050565b6101f2816101df565b82525050565b600060208201905061020d60008301846101e9565b92915050565b600080fd5b610221816101df565b811461022c57600080fd5b50565b60008135905061023e81610218565b92915050565b60006020828403121561025a57610259610213565b5b60006102688482850161022f565b91505092915050565b600082825260208201905092915050565b7f496e73756666696369656e742062616c616e636520696e20666175636574206660008201527f6f72207769746864726177616c20726571756573740000000000000000000000602082015250565b60006102de603583610271565b91506102e982610282565b604082019050919050565b6000602082019050818103600083015261030d816102d1565b905091905056fea2646970667358221220f92fa32bd545137dead61c67ac130b194e56661074377fd6f0dd2ffa868337ed64736f6c634300080b0033",
  "immutableReferences": {},
  "source": "//SPDX-License-Identifier: UNLICENSED\n// Our first contract is a faucet\n\npragma solidity ^0.8.11;\n\ncontract Faucet{\n\n    // need this for the contract Token, need to specify payable\n    // if we want to send ether at construction time on Token side\n    constructor() payable {}\n\n    //index allow us to make it searchable in the app that will use this event\n    event Withdrawal(address indexed to, uint amount);\n    event Deposit(address indexed from, uint amount);\n\n    //give out ether to anyone who asks\n    function withdraw(uint withdraw_amount) public{\n        //Limit withdraw amount \n        require(withdraw_amount < 0.1 ether);\n        //Send the amount to the address that requested it\n        require(address(this).balance >= withdraw_amount, \"Insufficient balance in faucet for withdrawal request\");\n        payable(msg.sender).transfer(withdraw_amount);\n        emit Withdrawal(msg.sender, withdraw_amount);\n    }\n\n    //Accept any uncoming amount\n    fallback () external payable {\n        emit Deposit(msg.sender, msg.value);\n    }\n    \n    receive () external payable {\n        emit Deposit(msg.sender, msg.value);\n    }\n}",
  "sourcePath": "/home/slavnic/Projects/Training/Blockchain/MasteringEthereum/MEsrc/METoken/contracts/Faucet.sol",
  "compiler": {
    "name": "solc",
    "version": "0.8.11+commit.d7f03943.Emscripten.clang"
  },
  "schemaVersion": "3.4.4",
  "updatedAt": "2022-02-12T17:02:47.515Z",
  "networkType": "ethereum",
  "devdoc": {
    "kind": "dev",
    "methods": {},
    "version": 1
  },
  "userdoc": {
    "kind": "user",
    "methods": {},
    "version": 1
  }
}