{
  "contractName": "KETFaucet",
  "abi": [
    {
      "inputs": [
        {
          "internalType": "address",
          "name": "_KasssosToken",
          "type": "address"
        },
        {
          "internalType": "address",
          "name": "_KETOwner",
          "type": "address"
        }
      ],
      "stateMutability": "nonpayable",
      "type": "constructor"
    },
    {
      "stateMutability": "payable",
      "type": "fallback",
      "payable": true
    },
    {
      "inputs": [],
      "name": "KETOwner",
      "outputs": [
        {
          "internalType": "address",
          "name": "",
          "type": "address"
        }
      ],
      "stateMutability": "view",
      "type": "function",
      "constant": true
    },
    {
      "inputs": [],
      "name": "KassosToken",
      "outputs": [
        {
          "internalType": "contract ERC20",
          "name": "",
          "type": "address"
        }
      ],
      "stateMutability": "view",
      "type": "function",
      "constant": true
    },
    {
      "stateMutability": "payable",
      "type": "receive",
      "payable": true
    },
    {
      "inputs": [
        {
          "internalType": "uint256",
          "name": "withdraw_amount",
          "type": "uint256"
        }
      ],
      "name": "withdraw",
      "outputs": [],
      "stateMutability": "nonpayable",
      "type": "function"
    }
  ],
  "bytecode": "0x608060405234801561001057600080fd5b506040516105703803806105708339818101604052810190610032919061011d565b816000806101000a81548173ffffffffffffffffffffffffffffffffffffffff021916908373ffffffffffffffffffffffffffffffffffffffff16021790555080600160006101000a81548173ffffffffffffffffffffffffffffffffffffffff021916908373ffffffffffffffffffffffffffffffffffffffff160217905550505061015d565b600080fd5b600073ffffffffffffffffffffffffffffffffffffffff82169050919050565b60006100ea826100bf565b9050919050565b6100fa816100df565b811461010557600080fd5b50565b600081519050610117816100f1565b92915050565b60008060408385031215610134576101336100ba565b5b600061014285828601610108565b925050602061015385828601610108565b9150509250929050565b6104048061016c6000396000f3fe6080604052600436106100385760003560e01c80632d7e29ab146100475780632e1a7d4d146100725780633eaa42b61461009b57610042565b3661004257600080fd5b600080fd5b34801561005357600080fd5b5061005c6100c6565b6040516100699190610226565b60405180910390f35b34801561007e57600080fd5b506100996004803603810190610094919061027c565b6100ec565b005b3480156100a757600080fd5b506100b06101c1565b6040516100bd9190610308565b60405180910390f35b600160009054906101000a900473ffffffffffffffffffffffffffffffffffffffff1681565b6103e88111156100fb57600080fd5b60008054906101000a900473ffffffffffffffffffffffffffffffffffffffff1673ffffffffffffffffffffffffffffffffffffffff166323b872dd600160009054906101000a900473ffffffffffffffffffffffffffffffffffffffff1633846040518463ffffffff1660e01b815260040161017a93929190610332565b6020604051808303816000875af1158015610199573d6000803e3d6000fd5b505050506040513d601f19601f820116820180604052508101906101bd91906103a1565b5050565b60008054906101000a900473ffffffffffffffffffffffffffffffffffffffff1681565b600073ffffffffffffffffffffffffffffffffffffffff82169050919050565b6000610210826101e5565b9050919050565b61022081610205565b82525050565b600060208201905061023b6000830184610217565b92915050565b600080fd5b6000819050919050565b61025981610246565b811461026457600080fd5b50565b60008135905061027681610250565b92915050565b60006020828403121561029257610291610241565b5b60006102a084828501610267565b91505092915050565b6000819050919050565b60006102ce6102c96102c4846101e5565b6102a9565b6101e5565b9050919050565b60006102e0826102b3565b9050919050565b60006102f2826102d5565b9050919050565b610302816102e7565b82525050565b600060208201905061031d60008301846102f9565b92915050565b61032c81610246565b82525050565b60006060820190506103476000830186610217565b6103546020830185610217565b6103616040830184610323565b949350505050565b60008115159050919050565b61037e81610369565b811461038957600080fd5b50565b60008151905061039b81610375565b92915050565b6000602082840312156103b7576103b6610241565b5b60006103c58482850161038c565b9150509291505056fea2646970667358221220971a540d4bc215f186306f3709886244160b8350ec41218fc2c14cb487f71ad164736f6c634300080b0033",
  "immutableReferences": {},
  "source": "//SPDX-License-Identifier: UNLICENSED\n// Our first contract is a faucet\npragma solidity ^0.8.11;\nimport \"@openzeppelin/contracts/token/ERC20/ERC20.sol\";\n\n//A faucet for ERC20 token KET\ncontract KETFaucet {\n    ERC20 public KassosToken;\n    address public KETOwner;\n\n    //METFaucet constructor, provide the address of KassosToken contract and\n    //the owner address we will be approved to transferFrom\n    constructor(address _KasssosToken, address _KETOwner) {\n        KassosToken = ERC20(_KasssosToken);\n        KETOwner = _KETOwner;\n    }\n\n    function withdraw(uint withdraw_amount) public{\n\n        //Limit withdrawal amount to 10 KET\n        require(withdraw_amount <= 1000);\n        //Use the transferFrom function of KETToken\n        KassosToken.transferFrom(KETOwner, msg.sender, withdraw_amount);\n    }\n\n     //Accept any uncoming amount\n    fallback () external payable {\n        revert();\n    }\n\n    receive () external payable {\n        revert();\n    }\n}",
  "sourcePath": "/home/slavnic/Projects/Training/Blockchain/MasteringEthereum/MEsrc/METoken_METFaucet/contracts/KETFaucet.sol",
  "compiler": {
    "name": "solc",
    "version": "0.8.11+commit.d7f03943.Emscripten.clang"
  },
  "schemaVersion": "3.4.4",
  "updatedAt": "2022-02-16T16:25:02.103Z",
  "networkType": "ethereum",
  "devdoc": {
    "kind": "dev",
    "methods": {},
    "version": 1
  },
  "userdoc": {
    "kind": "user",
    "methods": {},
    "version": 1
  }
}